:100000000C9434000C9451000C9451000C94510049
:100010000C9451000C9451000C9451000C9451001C
:100020000C9451000C9451000C9451000C9451000C
:100030000C9451000C9451000C9451000C945100FC
:100040000C9451000C9451000C9451000C945100EC
:100050000C9451000C9451000C9451000C945100DC
:100060000C9451000C94510011241FBECFEFD8E026
:10007000DEBFCDBF21E0ACE0B1E001C01D92A031F8
:10008000B207E1F711E0A0E0B1E0ECE4F8E002C073
:1000900005900D92AC30B107D9F70E949E010C94E7
:1000A00024040C940000CF93DF93FC01248135815C
:1000B000232B09F4F2C0C081D18166E071E0CE014A
:1000C0000E941404892B09F048C095B180E298275A
:1000D00095B9FFEF2BE43DE1F15020403040E1F7CE
:1000E00000C0000095B1982795B99FEFEBE4FDE1C2
:1000F0009150E040F040E1F700C0000095B1982732
:1001000095B92FEF35EA9EE0215030409040E1F75D
:1001100000C0000095B1982795B9EFEFF5EA2EE001
:10012000E150F0402040E1F700C0000095B1982771
:1001300095B93FEF95EAEEE031509040E040E1F7AD
:1001400000C0000095B1892785B9FFEF25EA3EE0A0
:10015000F15020403040E1F79EC068E071E0CE01F0
:100160000E941404892BC1F495B180E2982795B9B7
:100170009FEFE5EAFEE09150E040F040E1F700C07B
:10018000000095B1892785B92FEF35EA8EE021501F
:1001900030408040E1F77FC06AE071E0CE010E940C
:1001A0001404892B09F079C095B180E2982795B99C
:1001B0009FEFE5EAFEE09150E040F040E1F700C03B
:1001C000000095B1982795B92FEF35EA9EE02150B0
:1001D00030409040E1F700C0000095B1982795B9F4
:1001E000EFEFF5EA2EE0E150F0402040E1F700C0EB
:1001F000000095B1982795B93FEF95EAEEE03150B0
:100200009040E040E1F700C0000095B1982795B913
:10021000FFEF2BE43DE1F15020403040E1F700C01A
:10022000000095B1982795B99FEFEBE4FDE191505F
:10023000E040F040E1F700C0000095B1982795B983
:100240002FEF3BE49DE1215030409040E1F700C0AA
:10025000000095B1982795B9EFEFFBE42DE1E1504F
:10026000F0402040E1F700C0000095B1982795B913
:100270003FEF9BE4EDE131509040E040E1F700C0FA
:10028000000095B1892785B9FFEF2BE43DE1F150DE
:1002900020403040E1F700C00000DF91CF91089589
:1002A000EF92FF920F931F93CF93DF93EC0119828C
:1002B00018821B821A821D821C8261157105B9F198
:1002C0007B01FB0101900020E9F731978F01061BAC
:1002D000170BB8016F5F7F4F80E090E00E944503ED
:1002E000009759F0998388831B830A832C813D8171
:1002F000232B81F4FC0110820DC088819981009725
:1003000011F00E94BC02198218821D821C821B827D
:100310001A820DC01D830C83B70188819981DF91FA
:10032000CF911F910F91FF90EF900C941D04DF91DE
:10033000CF911F910F91FF90EF900895CF93DF938E
:1003400000D000D000D0CDB7DEB7259A2D9866E05A
:1003500071E0CE0101960E945001CE0101960E94EB
:10036000530089819A810E94BC022FEF85EA9EE0AA
:10037000215080409040E1F700C0000068E071E04B
:10038000CE0101960E945001CE0101960E945300B9
:1003900089819A810E94BC022FEF85EA9EE021505C
:1003A00080409040E1F700C000006AE071E0CE01BB
:1003B00001960E945001CE0101960E94530089814E
:1003C0009A810E94BC022FEF85EA9EE02150804076
:1003D0009040E1F700C00000BACF2F923F924F92B9
:1003E0005F926F927F928F929F92AF92BF92CF92C5
:1003F000DF92EF92FF920F931F93CF93DF93CDB7CE
:10040000DEB7CA1BDB0B0FB6F894DEBF0FBECDBF45
:1004100009942A88398848885F846E847D848C8416
:100420009B84AA84B984C884DF80EE80FD800C811F
:100430001B81AA81B981CE0FD11D0FB6F894DEBF02
:100440000FBECDBFED0108950F931F93CF93DF93A0
:100450008230910510F482E090E0E0910E01F0917D
:100460000F0120E030E0A0E0B0E0309719F14081CA
:1004700051810281138148175907C8F084179507E5
:1004800069F4109731F012960C93129713961C93FF
:1004900027C000930E0110930F0122C021153105D2
:1004A00019F04217530718F49A01BD01EF01DF015B
:1004B000F801DBCF21153105F9F0281B390B243069
:1004C000310580F48A819B816115710521F0FB0162
:1004D0009383828304C090930F0180930E01FE01E9
:1004E000329644C0FE01E20FF31F81939193225094
:1004F0003109398328833AC020910C0130910D01D4
:10050000232B41F4209102013091030130930D011E
:1005100020930C012091000130910101211531053A
:1005200041F42DB73EB74091040150910501241BC1
:10053000350BE0910C01F0910D01E217F307A0F4E7
:100540002E1B3F0B2817390778F0AC014E5F5F4F29
:100550002417350748F04E0F5F1F50930D0140934D
:100560000C018193919302C0E0E0F0E0CF01DF91B4
:10057000CF911F910F910895CF93DF93009709F4C6
:1005800081C0FC01329713821282A0910E01B091BA
:100590000F01109781F420813181820F931F2091E8
:1005A0000C0130910D012817390751F5F0930D0119
:1005B000E0930C0167C0ED0120E030E0CE17DF07CB
:1005C00040F44A815B819E0141155105F1F0EA0139
:1005D000F5CFD383C28340815181840F951FC81703
:1005E000D90759F488819981840F951F02969183C8
:1005F00080838A819B81938382832115310529F42D
:10060000F0930F01E0930E013DC0E901FB83EA8303
:1006100049915991C40FD51FEC17FD0761F48081F2
:100620009181840F951F0296E901998388838281C5
:1006300093819B838A83E0E0F0E012968D919C91F8
:100640001397009719F0FD01DC01F7CF8D919C9174
:1006500011979D012E5F3F4F820F931F20910C0138
:1006600030910D012817390769F4309729F4109259
:100670000F0110920E0102C013821282B0930D017D
:10068000A0930C01DF91CF910895A0E0B0E0EBE4DE
:10069000F3E00C94F101EC01009721F4CB010E94EE
:1006A0002402B4C0FC01E60FF71F9C01225031095F
:1006B000E217F30708F4A8C0D9010D911C91119716
:1006C00006171707B0F00530110508F49BC0C801E4
:1006D00004978617970708F495C002501109061B66
:1006E000170B019311936D937C93CF010E94BC0271
:1006F00089C05B01A01AB10A4C01800E911EA09125
:100700000E01B0910F01612C712CE12CF12C10978E
:1007100009F446C08D919C911197A815B905B1F5C2
:100720006C0142E0C40ED11CCA14DB0478F14C0108
:100730008A189B08640142E0C40ED11C1296BC903A
:1007400012971396AC91B5E0CB16D10440F0B2826B
:10075000A38391828082D9016D937C9309C00E5F3F
:100760001F4F800F911FF90191838083EB2DFA2F8A
:10077000E114F10431F0D7011396FC93EE93129734
:1007800041C0F0930F01E0930E013CC0681679065A
:1007900008F43C017D0112960D90BC91A02DB7CFBD
:1007A00080910C0190910D0188169906E1F466166E
:1007B0007706C8F48091000190910101009741F4FF
:1007C0008DB79EB74091040150910501841B950B94
:1007D000E817F907C8F4F0930D01E0930C01F90153
:1007E000718360830FC0CB010E9424027C010097BB
:1007F00059F0A801BE010E940B04CE010E94BC0268
:10080000C70104C0CE0102C080E090E0CDB7DEB7E2
:10081000EEE00C940D02FB01DC0102C001900D9290
:1008200041505040D8F70895FB01DC018D910190B3
:1008300080190110D9F3990B0895FB01DC01019097
:0C0840000D920020E1F70895F894FFCF1E
:0C084C00000010012000440045003200B4
:00000001FF
