:100000000C9434000C9451000C9451000C94510049
:100010000C9451000C9451000C9451000C9451001C
:100020000C9451000C948E000C9451000C945100CF
:100030000C9451000C94C4000C9451000C94510089
:100040000C9451000C9451000C9451000C945100EC
:100050000C9451000C9451000C9451000C945100DC
:100060000C9451000C94510011241FBECFEFD8E026
:10007000DEBFCDBF11E0A0E0B1E0E8E1F2E002C0F8
:1000800005900D92A431B107D9F721E0A4E1B1E0C8
:1000900001C01D92AC31B207E1F70E94E7000C9459
:1000A0000A010C940000E82FF0E0E75FFE4F20818A
:1000B000E62FF0E0EF5FFE4F90815C9835E03A95D7
:1000C000F1F7000088E020FD02C0289801C0289ABE
:1000D00035E03A95F1F700005F9A35E03A95F1F78F
:1000E00000005F982695815071F788E090FD02C06E
:1000F000289801C0289A25E02A95F1F700005F9A18
:1001000035E03A95F1F700005F989695815071F7C8
:100110005C9A85E08A95F1F7000008951F920F928E
:100120000FB60F9211242F933F934F935F936F93CA
:100130007F938F939F93AF93BF93EF93FF938091A0
:100140000001813021F467E080911B0103C066E06B
:1001500080911A010E94530081E090910001911159
:1001600080E080930001FF91EF91BF91AF919F914B
:100170008F917F916F915F914F913F912F910F9050
:100180000FBE0F901F9018951F920F920FB60F92EF
:1001900011248F9380911B01893041F480911A01C1
:1001A0008F5F80931A0110921B0103C08F5F8093B1
:1001B0001B0180911A01863021F410921A011092CD
:1001C0001B018F910F900FBE0F901F90189580917B
:1001D000B1008B7F8093B1008091B10083608093E8
:1001E000B10080917000816080937000549A579A9A
:1001F000209A809181008B7F809381008091810083
:1002000083608093810080916F00816080936F0094
:080210007894FFCFF894FFCFB2
:10021800018040201008040201039F250D994941DF
:040228001F010900A9
:00000001FF
